{
  "contractName": "darkPool",
  "abi": [
    {
      "inputs": [],
      "stateMutability": "nonpayable",
      "type": "constructor"
    },
    {
      "anonymous": false,
      "inputs": [
        {
          "indexed": false,
          "internalType": "address",
          "name": "sender",
          "type": "address"
        },
        {
          "indexed": false,
          "internalType": "bytes32",
          "name": "commitment",
          "type": "bytes32"
        },
        {
          "indexed": false,
          "internalType": "bytes",
          "name": "ciphertext",
          "type": "bytes"
        }
      ],
      "name": "commitmentRevealed",
      "type": "event"
    },
    {
      "anonymous": false,
      "inputs": [
        {
          "indexed": false,
          "internalType": "address",
          "name": "claimer",
          "type": "address"
        }
      ],
      "name": "fraudClaimed",
      "type": "event"
    },
    {
      "anonymous": false,
      "inputs": [
        {
          "indexed": false,
          "internalType": "string",
          "name": "buyer",
          "type": "string"
        },
        {
          "indexed": false,
          "internalType": "address",
          "name": "buyerAddr",
          "type": "address"
        },
        {
          "indexed": false,
          "internalType": "string",
          "name": "seller",
          "type": "string"
        },
        {
          "indexed": false,
          "internalType": "address",
          "name": "sellerAddr",
          "type": "address"
        },
        {
          "indexed": false,
          "internalType": "string",
          "name": "asset",
          "type": "string"
        },
        {
          "indexed": false,
          "internalType": "uint256",
          "name": "amount",
          "type": "uint256"
        },
        {
          "indexed": false,
          "internalType": "uint256",
          "name": "price",
          "type": "uint256"
        }
      ],
      "name": "logTrade",
      "type": "event"
    },
    {
      "anonymous": false,
      "inputs": [
        {
          "indexed": false,
          "internalType": "address",
          "name": "sender",
          "type": "address"
        },
        {
          "indexed": false,
          "internalType": "bytes32",
          "name": "commitment",
          "type": "bytes32"
        },
        {
          "indexed": false,
          "internalType": "bytes",
          "name": "ciphertext",
          "type": "bytes"
        },
        {
          "indexed": false,
          "internalType": "bytes",
          "name": "secret",
          "type": "bytes"
        }
      ],
      "name": "secretRevealed",
      "type": "event"
    },
    {
      "anonymous": false,
      "inputs": [
        {
          "indexed": false,
          "internalType": "enum darkPool.Phase",
          "name": "currentState",
          "type": "uint8"
        },
        {
          "indexed": false,
          "internalType": "uint256",
          "name": "expirationTime",
          "type": "uint256"
        }
      ],
      "name": "startPhase",
      "type": "event"
    },
    {
      "inputs": [],
      "name": "auctionMode",
      "outputs": [
        {
          "internalType": "uint256",
          "name": "",
          "type": "uint256"
        }
      ],
      "stateMutability": "view",
      "type": "function"
    },
    {
      "inputs": [],
      "name": "expiration",
      "outputs": [
        {
          "internalType": "uint256",
          "name": "",
          "type": "uint256"
        }
      ],
      "stateMutability": "view",
      "type": "function"
    },
    {
      "inputs": [],
      "name": "operator",
      "outputs": [
        {
          "internalType": "address",
          "name": "",
          "type": "address"
        }
      ],
      "stateMutability": "view",
      "type": "function"
    },
    {
      "inputs": [
        {
          "internalType": "address",
          "name": "",
          "type": "address"
        }
      ],
      "name": "orders",
      "outputs": [
        {
          "internalType": "bytes32",
          "name": "_commitment",
          "type": "bytes32"
        },
        {
          "internalType": "bytes",
          "name": "_ciphertext",
          "type": "bytes"
        },
        {
          "internalType": "bytes",
          "name": "_sk",
          "type": "bytes"
        }
      ],
      "stateMutability": "view",
      "type": "function"
    },
    {
      "inputs": [],
      "name": "phase",
      "outputs": [
        {
          "internalType": "enum darkPool.Phase",
          "name": "",
          "type": "uint8"
        }
      ],
      "stateMutability": "view",
      "type": "function"
    },
    {
      "inputs": [],
      "name": "stake",
      "outputs": [
        {
          "internalType": "uint256",
          "name": "",
          "type": "uint256"
        }
      ],
      "stateMutability": "view",
      "type": "function"
    },
    {
      "inputs": [
        {
          "internalType": "address",
          "name": "",
          "type": "address"
        }
      ],
      "name": "us_pk",
      "outputs": [
        {
          "internalType": "bytes",
          "name": "",
          "type": "bytes"
        }
      ],
      "stateMutability": "view",
      "type": "function"
    },
    {
      "inputs": [
        {
          "internalType": "address",
          "name": "client_address",
          "type": "address"
        },
        {
          "internalType": "bytes",
          "name": "pk",
          "type": "bytes"
        }
      ],
      "name": "register_client",
      "outputs": [],
      "stateMutability": "nonpayable",
      "type": "function"
    },
    {
      "inputs": [
        {
          "internalType": "uint256",
          "name": "time",
          "type": "uint256"
        },
        {
          "internalType": "uint256",
          "name": "mode",
          "type": "uint256"
        },
        {
          "internalType": "uint256",
          "name": "deposit",
          "type": "uint256"
        }
      ],
      "name": "trading_phase",
      "outputs": [],
      "stateMutability": "nonpayable",
      "type": "function"
    },
    {
      "inputs": [
        {
          "internalType": "uint256",
          "name": "time",
          "type": "uint256"
        }
      ],
      "name": "reveal_phase",
      "outputs": [],
      "stateMutability": "nonpayable",
      "type": "function"
    },
    {
      "inputs": [],
      "name": "calc_phase",
      "outputs": [],
      "stateMutability": "nonpayable",
      "type": "function"
    },
    {
      "inputs": [
        {
          "internalType": "string",
          "name": "asset",
          "type": "string"
        },
        {
          "internalType": "address",
          "name": "buyer",
          "type": "address"
        },
        {
          "internalType": "bytes",
          "name": "skB",
          "type": "bytes"
        },
        {
          "internalType": "string",
          "name": "nameB",
          "type": "string"
        },
        {
          "internalType": "address",
          "name": "seller",
          "type": "address"
        },
        {
          "internalType": "bytes",
          "name": "skS",
          "type": "bytes"
        },
        {
          "internalType": "string",
          "name": "nameS",
          "type": "string"
        },
        {
          "internalType": "uint256",
          "name": "amount",
          "type": "uint256"
        },
        {
          "internalType": "uint256",
          "name": "price",
          "type": "uint256"
        }
      ],
      "name": "reveal_match",
      "outputs": [],
      "stateMutability": "nonpayable",
      "type": "function"
    },
    {
      "inputs": [
        {
          "internalType": "uint256",
          "name": "time",
          "type": "uint256"
        }
      ],
      "name": "res_phase",
      "outputs": [],
      "stateMutability": "nonpayable",
      "type": "function"
    },
    {
      "inputs": [],
      "name": "reg_phase",
      "outputs": [],
      "stateMutability": "nonpayable",
      "type": "function"
    },
    {
      "inputs": [
        {
          "internalType": "address",
          "name": "client_address",
          "type": "address"
        }
      ],
      "name": "remove_order",
      "outputs": [],
      "stateMutability": "nonpayable",
      "type": "function"
    },
    {
      "inputs": [
        {
          "internalType": "address",
          "name": "client_address",
          "type": "address"
        }
      ],
      "name": "remove_client",
      "outputs": [],
      "stateMutability": "nonpayable",
      "type": "function"
    },
    {
      "inputs": [
        {
          "internalType": "bytes32",
          "name": "hashed_order",
          "type": "bytes32"
        }
      ],
      "name": "commit_order",
      "outputs": [],
      "stateMutability": "payable",
      "type": "function"
    },
    {
      "inputs": [],
      "name": "cancel_order",
      "outputs": [],
      "stateMutability": "nonpayable",
      "type": "function"
    },
    {
      "inputs": [
        {
          "internalType": "bytes32",
          "name": "hashed_order",
          "type": "bytes32"
        }
      ],
      "name": "change_order",
      "outputs": [],
      "stateMutability": "nonpayable",
      "type": "function"
    },
    {
      "inputs": [
        {
          "internalType": "bytes",
          "name": "ciphertext",
          "type": "bytes"
        }
      ],
      "name": "reveal_order",
      "outputs": [],
      "stateMutability": "nonpayable",
      "type": "function"
    },
    {
      "inputs": [],
      "name": "claim_fraud",
      "outputs": [],
      "stateMutability": "nonpayable",
      "type": "function"
    }
  ],
  "bytecode": "0x60806040523480156200001157600080fd5b5033600060016101000a81548173ffffffffffffffffffffffffffffffffffffffff021916908373ffffffffffffffffffffffffffffffffffffffff16021790555060008060006101000a81548160ff021916908360048111156200009f577f4e487b7100000000000000000000000000000000000000000000000000000000600052602160045260246000fd5b02179055507f6cbedf016343735c7df1dd978080061d29a9ad9c17b4676e17d5f03529068b2d600080604051620000d892919062000128565b60405180910390a16000600481905550600060018190555060006005819055506000600681905550620001e2565b620001118162000174565b82525050565b620001228162000188565b82525050565b60006040820190506200013f600083018562000106565b6200014e602083018462000117565b9392505050565b60008190506200016582620001cb565b919050565b6000819050919050565b6000620001818262000155565b9050919050565b600062000195826200016a565b9050919050565b7f4e487b7100000000000000000000000000000000000000000000000000000000600052602160045260246000fd5b60058110620001df57620001de6200019c565b5b50565b6141e280620001f26000396000f3fe60806040526004361061012a5760003560e01c8063a7e77328116100ab578063ded83a101161006f578063ded83a1014610393578063e83c6118146103aa578063efe2d9a4146103c1578063f40e8471146103ea578063f92a23ba14610429578063ff890b13146104545761012a565b8063a7e77328146102bd578063b1c9fe6e146102e6578063c272338914610311578063cf1a51281461033a578063ded33e30146103565761012a565b806369c119ac116100f257806369c119ac146101f05780636f255d8914610219578063850142d51461024257806385ef644b1461026b578063905cc09d146102945761012a565b80632eba303e1461012f5780633a4b66f1146101465780634665096d146101715780634a0d43601461019c578063570ca735146101c5575b600080fd5b34801561013b57600080fd5b5061014461046b565b005b34801561015257600080fd5b5061015b61068d565b60405161016891906139d1565b60405180910390f35b34801561017d57600080fd5b50610186610693565b60405161019391906139d1565b60405180910390f35b3480156101a857600080fd5b506101c360048036038101906101be9190612f43565b610699565b005b3480156101d157600080fd5b506101da61094c565b6040516101e791906135cd565b60405180910390f35b3480156101fc57600080fd5b5061021760048036038101906102129190613191565b610972565b005b34801561022557600080fd5b50610240600480360381019061023b9190612f43565b610bfb565b005b34801561024e57600080fd5b506102696004803603810190610264919061302a565b610ef9565b005b34801561027757600080fd5b50610292600480360381019061028d9190612fc0565b611616565b005b3480156102a057600080fd5b506102bb60048036038101906102b69190613168565b611836565b005b3480156102c957600080fd5b506102e460048036038101906102df9190612f6c565b611a27565b005b3480156102f257600080fd5b506102fb611bcf565b60405161030891906136e0565b60405180910390f35b34801561031d57600080fd5b5061033860048036038101906103339190613168565b611be0565b005b610354600480360381019061034f9190612fc0565b611e16565b005b34801561036257600080fd5b5061037d60048036038101906103789190612f43565b612094565b60405161038a91906136be565b60405180910390f35b34801561039f57600080fd5b506103a8612134565b005b3480156103b657600080fd5b506103bf612354565b005b3480156103cd57600080fd5b506103e860048036038101906103e39190612fe9565b6124da565b005b3480156103f657600080fd5b50610411600480360381019061040c9190612f43565b61296e565b60405161042093929190613679565b60405180910390f35b34801561043557600080fd5b5061043e612aa8565b60405161044b91906139d1565b60405180910390f35b34801561046057600080fd5b50610469612aae565b005b600060019054906101000a900473ffffffffffffffffffffffffffffffffffffffff1673ffffffffffffffffffffffffffffffffffffffff163373ffffffffffffffffffffffffffffffffffffffff16146104fb576040517f08c379a00000000000000000000000000000000000000000000000000000000081526004016104f290613971565b60405180910390fd5b60026004811115610535577f4e487b7100000000000000000000000000000000000000000000000000000000600052602160045260246000fd5b60008054906101000a900460ff16600481111561057b577f4e487b7100000000000000000000000000000000000000000000000000000000600052602160045260246000fd5b146105bb576040517f08c379a00000000000000000000000000000000000000000000000000000000081526004016105b290613871565b60405180910390fd5b600654431015610600576040517f08c379a00000000000000000000000000000000000000000000000000000000081526004016105f790613831565b60405180910390fd5b60036000806101000a81548160ff0219169083600481111561064b577f4e487b7100000000000000000000000000000000000000000000000000000000600052602160045260246000fd5b02179055507f6cbedf016343735c7df1dd978080061d29a9ad9c17b4676e17d5f03529068b2d600360006040516106839291906136fb565b60405180910390a1565b60015481565b60065481565b600060019054906101000a900473ffffffffffffffffffffffffffffffffffffffff1673ffffffffffffffffffffffffffffffffffffffff163373ffffffffffffffffffffffffffffffffffffffff1614610729576040517f08c379a000000000000000000000000000000000000000000000000000000000815260040161072090613971565b60405180910390fd5b60006004811115610763577f4e487b7100000000000000000000000000000000000000000000000000000000600052602160045260246000fd5b60008054906101000a900460ff1660048111156107a9577f4e487b7100000000000000000000000000000000000000000000000000000000600052602160045260246000fd5b146107e9576040517f08c379a00000000000000000000000000000000000000000000000000000000081526004016107e090613871565b60405180910390fd5b6000600260008373ffffffffffffffffffffffffffffffffffffffff1673ffffffffffffffffffffffffffffffffffffffff168152602001908152602001600020805461083590613c14565b90501415610878576040517f08c379a000000000000000000000000000000000000000000000000000000000815260040161086f906137f1565b60405180910390fd5b6000801b600360008373ffffffffffffffffffffffffffffffffffffffff1673ffffffffffffffffffffffffffffffffffffffff168152602001908152602001600020600001541461094957600360008273ffffffffffffffffffffffffffffffffffffffff1673ffffffffffffffffffffffffffffffffffffffff16815260200190815260200160002060008082016000905560018201600061091c9190612d51565b60028201600061092c9190612d51565b50506001600460008282546109419190613b21565b925050819055505b50565b600060019054906101000a900473ffffffffffffffffffffffffffffffffffffffff1681565b600060019054906101000a900473ffffffffffffffffffffffffffffffffffffffff1673ffffffffffffffffffffffffffffffffffffffff163373ffffffffffffffffffffffffffffffffffffffff1614610a02576040517f08c379a00000000000000000000000000000000000000000000000000000000081526004016109f990613971565b60405180910390fd5b60006004811115610a3c577f4e487b7100000000000000000000000000000000000000000000000000000000600052602160045260246000fd5b60008054906101000a900460ff166004811115610a82577f4e487b7100000000000000000000000000000000000000000000000000000000600052602160045260246000fd5b14610ac2576040517f08c379a0000000000000000000000000000000000000000000000000000000008152600401610ab990613871565b60405180910390fd5b600060045414610b07576040517f08c379a0000000000000000000000000000000000000000000000000000000008152600401610afe906138f1565b60405180910390fd5b60038210610b4a576040517f08c379a0000000000000000000000000000000000000000000000000000000008152600401610b4190613951565b60405180910390fd5b816005819055508060018190555060016000806101000a81548160ff02191690836004811115610ba3577f4e487b7100000000000000000000000000000000000000000000000000000000600052602160045260246000fd5b02179055508243610bb49190613acb565b6006819055507f6cbedf016343735c7df1dd978080061d29a9ad9c17b4676e17d5f03529068b2d6001600654604051610bee929190613724565b60405180910390a1505050565b600060019054906101000a900473ffffffffffffffffffffffffffffffffffffffff1673ffffffffffffffffffffffffffffffffffffffff163373ffffffffffffffffffffffffffffffffffffffff1614610c8b576040517f08c379a0000000000000000000000000000000000000000000000000000000008152600401610c8290613971565b60405180910390fd5b60006004811115610cc5577f4e487b7100000000000000000000000000000000000000000000000000000000600052602160045260246000fd5b60008054906101000a900460ff166004811115610d0b577f4e487b7100000000000000000000000000000000000000000000000000000000600052602160045260246000fd5b14610d4b576040517f08c379a0000000000000000000000000000000000000000000000000000000008152600401610d4290613871565b60405180910390fd5b6000600260008373ffffffffffffffffffffffffffffffffffffffff1673ffffffffffffffffffffffffffffffffffffffff1681526020019081526020016000208054610d9790613c14565b90501415610dda576040517f08c379a0000000000000000000000000000000000000000000000000000000008152600401610dd1906137f1565b60405180910390fd5b6000801b600360008373ffffffffffffffffffffffffffffffffffffffff1673ffffffffffffffffffffffffffffffffffffffff1681526020019081526020016000206000015414610eab57600360008273ffffffffffffffffffffffffffffffffffffffff1673ffffffffffffffffffffffffffffffffffffffff168152602001908152602001600020600080820160009055600182016000610e7e9190612d51565b600282016000610e8e9190612d51565b5050600160046000828254610ea39190613b21565b925050819055505b600260008273ffffffffffffffffffffffffffffffffffffffff1673ffffffffffffffffffffffffffffffffffffffff1681526020019081526020016000206000610ef69190612d51565b50565b600060019054906101000a900473ffffffffffffffffffffffffffffffffffffffff1673ffffffffffffffffffffffffffffffffffffffff163373ffffffffffffffffffffffffffffffffffffffff1614610f89576040517f08c379a0000000000000000000000000000000000000000000000000000000008152600401610f8090613971565b60405180910390fd5b60036004811115610fc3577f4e487b7100000000000000000000000000000000000000000000000000000000600052602160045260246000fd5b60008054906101000a900460ff166004811115611009577f4e487b7100000000000000000000000000000000000000000000000000000000600052602160045260246000fd5b14611049576040517f08c379a000000000000000000000000000000000000000000000000000000000815260040161104090613871565b60405180910390fd5b8473ffffffffffffffffffffffffffffffffffffffff168873ffffffffffffffffffffffffffffffffffffffff1614156110b8576040517f08c379a00000000000000000000000000000000000000000000000000000000081526004016110af90613811565b60405180910390fd5b6000801b600360008a73ffffffffffffffffffffffffffffffffffffffff1673ffffffffffffffffffffffffffffffffffffffff168152602001908152602001600020600001541415611140576040517f08c379a000000000000000000000000000000000000000000000000000000000815260040161113790613911565b60405180910390fd5b6000600360008a73ffffffffffffffffffffffffffffffffffffffff1673ffffffffffffffffffffffffffffffffffffffff168152602001908152602001600020600101805461118f90613c14565b9050116111d1576040517f08c379a00000000000000000000000000000000000000000000000000000000081526004016111c890613851565b60405180910390fd5b6000801b600360008773ffffffffffffffffffffffffffffffffffffffff1673ffffffffffffffffffffffffffffffffffffffff168152602001908152602001600020600001541415611259576040517f08c379a000000000000000000000000000000000000000000000000000000000815260040161125090613911565b60405180910390fd5b6000600360008773ffffffffffffffffffffffffffffffffffffffff1673ffffffffffffffffffffffffffffffffffffffff16815260200190815260200160002060010180546112a890613c14565b9050116112ea576040517f08c379a00000000000000000000000000000000000000000000000000000000081526004016112e190613851565b60405180910390fd5b6000600360008773ffffffffffffffffffffffffffffffffffffffff1673ffffffffffffffffffffffffffffffffffffffff168152602001908152602001600020600201805461133990613c14565b905014156114595783600360008773ffffffffffffffffffffffffffffffffffffffff1673ffffffffffffffffffffffffffffffffffffffff1681526020019081526020016000206002019080519060200190611397929190612d91565b507f14b784c55e6639dbae87d1f96ea0bf624aa24b9f9cefee08980409b940e928bc85600360008873ffffffffffffffffffffffffffffffffffffffff1673ffffffffffffffffffffffffffffffffffffffff16815260200190815260200160002060000154600360008973ffffffffffffffffffffffffffffffffffffffff1673ffffffffffffffffffffffffffffffffffffffff168152602001908152602001600020600101876040516114509493929190613626565b60405180910390a15b6000600360008a73ffffffffffffffffffffffffffffffffffffffff1673ffffffffffffffffffffffffffffffffffffffff16815260200190815260200160002060020180546114a890613c14565b905014156115c85786600360008a73ffffffffffffffffffffffffffffffffffffffff1673ffffffffffffffffffffffffffffffffffffffff1681526020019081526020016000206002019080519060200190611506929190612d91565b507f14b784c55e6639dbae87d1f96ea0bf624aa24b9f9cefee08980409b940e928bc88600360008b73ffffffffffffffffffffffffffffffffffffffff1673ffffffffffffffffffffffffffffffffffffffff16815260200190815260200160002060000154600360008c73ffffffffffffffffffffffffffffffffffffffff1673ffffffffffffffffffffffffffffffffffffffff1681526020019081526020016000206001018a6040516115bf9493929190613626565b60405180910390a15b7feb950a41a03ccd4b8d1436c363998e34b42c28d1aa9c12b3ab7dee03856b8dd5868985888d8787604051611603979695949392919061374d565b60405180910390a1505050505050505050565b60016004811115611650577f4e487b7100000000000000000000000000000000000000000000000000000000600052602160045260246000fd5b60008054906101000a900460ff166004811115611696577f4e487b7100000000000000000000000000000000000000000000000000000000600052602160045260246000fd5b146116d6576040517f08c379a00000000000000000000000000000000000000000000000000000000081526004016116cd90613871565b60405180910390fd5b6000600260003373ffffffffffffffffffffffffffffffffffffffff1673ffffffffffffffffffffffffffffffffffffffff168152602001908152602001600020805461172290613c14565b905011611764576040517f08c379a000000000000000000000000000000000000000000000000000000000815260040161175b906138b1565b60405180910390fd5b6000801b600360003373ffffffffffffffffffffffffffffffffffffffff1673ffffffffffffffffffffffffffffffffffffffff1681526020019081526020016000206000015414156117ec576040517f08c379a00000000000000000000000000000000000000000000000000000000081526004016117e3906139b1565b60405180910390fd5b80600360003373ffffffffffffffffffffffffffffffffffffffff1673ffffffffffffffffffffffffffffffffffffffff1681526020019081526020016000206000018190555050565b600060019054906101000a900473ffffffffffffffffffffffffffffffffffffffff1673ffffffffffffffffffffffffffffffffffffffff163373ffffffffffffffffffffffffffffffffffffffff16146118c6576040517f08c379a00000000000000000000000000000000000000000000000000000000081526004016118bd90613971565b60405180910390fd5b60036004811115611900577f4e487b7100000000000000000000000000000000000000000000000000000000600052602160045260246000fd5b60008054906101000a900460ff166004811115611946577f4e487b7100000000000000000000000000000000000000000000000000000000600052602160045260246000fd5b14611986576040517f08c379a000000000000000000000000000000000000000000000000000000000815260040161197d90613871565b60405180910390fd5b60046000806101000a81548160ff021916908360048111156119d1577f4e487b7100000000000000000000000000000000000000000000000000000000600052602160045260246000fd5b021790555080436119e29190613acb565b6006819055507f6cbedf016343735c7df1dd978080061d29a9ad9c17b4676e17d5f03529068b2d6004600654604051611a1c929190613724565b60405180910390a150565b600060019054906101000a900473ffffffffffffffffffffffffffffffffffffffff1673ffffffffffffffffffffffffffffffffffffffff163373ffffffffffffffffffffffffffffffffffffffff1614611ab7576040517f08c379a0000000000000000000000000000000000000000000000000000000008152600401611aae90613971565b60405180910390fd5b60006004811115611af1577f4e487b7100000000000000000000000000000000000000000000000000000000600052602160045260246000fd5b60008054906101000a900460ff166004811115611b37577f4e487b7100000000000000000000000000000000000000000000000000000000600052602160045260246000fd5b14611b77576040517f08c379a0000000000000000000000000000000000000000000000000000000008152600401611b6e90613871565b60405180910390fd5b80600260008473ffffffffffffffffffffffffffffffffffffffff1673ffffffffffffffffffffffffffffffffffffffff1681526020019081526020016000209080519060200190611bca929190612d91565b505050565b60008054906101000a900460ff1681565b600060019054906101000a900473ffffffffffffffffffffffffffffffffffffffff1673ffffffffffffffffffffffffffffffffffffffff163373ffffffffffffffffffffffffffffffffffffffff1614611c70576040517f08c379a0000000000000000000000000000000000000000000000000000000008152600401611c6790613971565b60405180910390fd5b60016004811115611caa577f4e487b7100000000000000000000000000000000000000000000000000000000600052602160045260246000fd5b60008054906101000a900460ff166004811115611cf0577f4e487b7100000000000000000000000000000000000000000000000000000000600052602160045260246000fd5b14611d30576040517f08c379a0000000000000000000000000000000000000000000000000000000008152600401611d2790613871565b60405180910390fd5b600654431015611d75576040517f08c379a0000000000000000000000000000000000000000000000000000000008152600401611d6c90613831565b60405180910390fd5b60026000806101000a81548160ff02191690836004811115611dc0577f4e487b7100000000000000000000000000000000000000000000000000000000600052602160045260246000fd5b02179055508043611dd19190613acb565b6006819055507f6cbedf016343735c7df1dd978080061d29a9ad9c17b4676e17d5f03529068b2d6002600654604051611e0b929190613724565b60405180910390a150565b600154341015611e5b576040517f08c379a0000000000000000000000000000000000000000000000000000000008152600401611e52906138d1565b60405180910390fd5b60016004811115611e95577f4e487b7100000000000000000000000000000000000000000000000000000000600052602160045260246000fd5b60008054906101000a900460ff166004811115611edb577f4e487b7100000000000000000000000000000000000000000000000000000000600052602160045260246000fd5b14611f1b576040517f08c379a0000000000000000000000000000000000000000000000000000000008152600401611f1290613871565b60405180910390fd5b6000600260003373ffffffffffffffffffffffffffffffffffffffff1673ffffffffffffffffffffffffffffffffffffffff1681526020019081526020016000208054611f6790613c14565b905011611fa9576040517f08c379a0000000000000000000000000000000000000000000000000000000008152600401611fa0906138b1565b60405180910390fd5b6000801b600360003373ffffffffffffffffffffffffffffffffffffffff1673ffffffffffffffffffffffffffffffffffffffff1681526020019081526020016000206000015414612030576040517f08c379a0000000000000000000000000000000000000000000000000000000008152600401612027906137d1565b60405180910390fd5b80600360003373ffffffffffffffffffffffffffffffffffffffff1673ffffffffffffffffffffffffffffffffffffffff1681526020019081526020016000206000018190555060016004600082825461208a9190613acb565b9250508190555050565b600260205280600052604060002060009150905080546120b390613c14565b80601f01602080910402602001604051908101604052809291908181526020018280546120df90613c14565b801561212c5780601f106121015761010080835404028352916020019161212c565b820191906000526020600020905b81548152906001019060200180831161210f57829003601f168201915b505050505081565b600060019054906101000a900473ffffffffffffffffffffffffffffffffffffffff1673ffffffffffffffffffffffffffffffffffffffff163373ffffffffffffffffffffffffffffffffffffffff16146121c4576040517f08c379a00000000000000000000000000000000000000000000000000000000081526004016121bb90613971565b60405180910390fd5b6004808111156121fd577f4e487b7100000000000000000000000000000000000000000000000000000000600052602160045260246000fd5b60008054906101000a900460ff166004811115612243577f4e487b7100000000000000000000000000000000000000000000000000000000600052602160045260246000fd5b14612283576040517f08c379a000000000000000000000000000000000000000000000000000000000815260040161227a90613871565b60405180910390fd5b6006544310156122c8576040517f08c379a00000000000000000000000000000000000000000000000000000000081526004016122bf90613831565b60405180910390fd5b60008060006101000a81548160ff02191690836004811115612313577f4e487b7100000000000000000000000000000000000000000000000000000000600052602160045260246000fd5b02179055507f6cbedf016343735c7df1dd978080061d29a9ad9c17b4676e17d5f03529068b2d60008060405161234a9291906136fb565b60405180910390a1565b60048081111561238d577f4e487b7100000000000000000000000000000000000000000000000000000000600052602160045260246000fd5b60008054906101000a900460ff1660048111156123d3577f4e487b7100000000000000000000000000000000000000000000000000000000600052602160045260246000fd5b14612413576040517f08c379a000000000000000000000000000000000000000000000000000000000815260040161240a90613871565b60405180910390fd5b6000600260003373ffffffffffffffffffffffffffffffffffffffff1673ffffffffffffffffffffffffffffffffffffffff168152602001908152602001600020805461245f90613c14565b9050116124a1576040517f08c379a000000000000000000000000000000000000000000000000000000000815260040161249890613891565b60405180910390fd5b7fa31b368c76a62025a1b5390909c0b83f9392255bf9b6fff4f8baa5400ec23b4c336040516124d091906135cd565b60405180910390a1565b60026004811115612514577f4e487b7100000000000000000000000000000000000000000000000000000000600052602160045260246000fd5b60008054906101000a900460ff16600481111561255a577f4e487b7100000000000000000000000000000000000000000000000000000000600052602160045260246000fd5b1461259a576040517f08c379a000000000000000000000000000000000000000000000000000000000815260040161259190613871565b60405180910390fd5b6000600260003373ffffffffffffffffffffffffffffffffffffffff1673ffffffffffffffffffffffffffffffffffffffff16815260200190815260200160002080546125e690613c14565b905011612628576040517f08c379a000000000000000000000000000000000000000000000000000000000815260040161261f90613891565b60405180910390fd5b6000801b600360003373ffffffffffffffffffffffffffffffffffffffff1673ffffffffffffffffffffffffffffffffffffffff1681526020019081526020016000206000015414156126b0576040517f08c379a00000000000000000000000000000000000000000000000000000000081526004016126a7906139b1565b60405180910390fd5b6000600360003373ffffffffffffffffffffffffffffffffffffffff1673ffffffffffffffffffffffffffffffffffffffff16815260200190815260200160002060010180546126ff90613c14565b905014612741576040517f08c379a000000000000000000000000000000000000000000000000000000000815260040161273890613931565b60405180910390fd5b600360003373ffffffffffffffffffffffffffffffffffffffff1673ffffffffffffffffffffffffffffffffffffffff168152602001908152602001600020600001548160405160200161279591906135a1565b60405160208183030381529060405280519060200120146127eb576040517f08c379a00000000000000000000000000000000000000000000000000000000081526004016127e290613991565b60405180910390fd5b80600360003373ffffffffffffffffffffffffffffffffffffffff1673ffffffffffffffffffffffffffffffffffffffff1681526020019081526020016000206001019080519060200190612841929190612d91565b503373ffffffffffffffffffffffffffffffffffffffff16600154604051612868906135b8565b60006040518083038185875af1925050503d80600081146128a5576040519150601f19603f3d011682016040523d82523d6000602084013e6128aa565b606091505b5050507fa258cacf61810c3e5222b8b020836d334719630e3fbd7d22d89080ed2d6c362433600360003373ffffffffffffffffffffffffffffffffffffffff1673ffffffffffffffffffffffffffffffffffffffff16815260200190815260200160002060000154600360003373ffffffffffffffffffffffffffffffffffffffff1673ffffffffffffffffffffffffffffffffffffffff168152602001908152602001600020600101604051612963939291906135e8565b60405180910390a150565b600360205280600052604060002060009150905080600001549080600101805461299790613c14565b80601f01602080910402602001604051908101604052809291908181526020018280546129c390613c14565b8015612a105780601f106129e557610100808354040283529160200191612a10565b820191906000526020600020905b8154815290600101906020018083116129f357829003601f168201915b505050505090806002018054612a2590613c14565b80601f0160208091040260200160405190810160405280929190818152602001828054612a5190613c14565b8015612a9e5780601f10612a7357610100808354040283529160200191612a9e565b820191906000526020600020905b815481529060010190602001808311612a8157829003601f168201915b5050505050905083565b60055481565b60016004811115612ae8577f4e487b7100000000000000000000000000000000000000000000000000000000600052602160045260246000fd5b60008054906101000a900460ff166004811115612b2e577f4e487b7100000000000000000000000000000000000000000000000000000000600052602160045260246000fd5b14612b6e576040517f08c379a0000000000000000000000000000000000000000000000000000000008152600401612b6590613871565b60405180910390fd5b6000600260003373ffffffffffffffffffffffffffffffffffffffff1673ffffffffffffffffffffffffffffffffffffffff1681526020019081526020016000208054612bba90613c14565b905011612bfc576040517f08c379a0000000000000000000000000000000000000000000000000000000008152600401612bf3906138b1565b60405180910390fd5b6000801b600360003373ffffffffffffffffffffffffffffffffffffffff1673ffffffffffffffffffffffffffffffffffffffff168152602001908152602001600020600001541415612c84576040517f08c379a0000000000000000000000000000000000000000000000000000000008152600401612c7b906139b1565b60405180910390fd5b600160046000828254612c979190613b21565b92505081905550600360003373ffffffffffffffffffffffffffffffffffffffff1673ffffffffffffffffffffffffffffffffffffffff168152602001908152602001600020600001600090553373ffffffffffffffffffffffffffffffffffffffff16600154604051612d0a906135b8565b60006040518083038185875af1925050503d8060008114612d47576040519150601f19603f3d011682016040523d82523d6000602084013e612d4c565b606091505b505050565b508054612d5d90613c14565b6000825580601f10612d6f5750612d8e565b601f016020900490600052602060002090810190612d8d9190612e17565b5b50565b828054612d9d90613c14565b90600052602060002090601f016020900481019282612dbf5760008555612e06565b82601f10612dd857805160ff1916838001178555612e06565b82800160010185558215612e06579182015b82811115612e05578251825591602001919060010190612dea565b5b509050612e139190612e17565b5090565b5b80821115612e30576000816000905550600101612e18565b5090565b6000612e47612e4284613a11565b6139ec565b905082815260208101848484011115612e5f57600080fd5b612e6a848285613bd2565b509392505050565b6000612e85612e8084613a42565b6139ec565b905082815260208101848484011115612e9d57600080fd5b612ea8848285613bd2565b509392505050565b600081359050612ebf81614167565b92915050565b600081359050612ed48161417e565b92915050565b600082601f830112612eeb57600080fd5b8135612efb848260208601612e34565b91505092915050565b600082601f830112612f1557600080fd5b8135612f25848260208601612e72565b91505092915050565b600081359050612f3d81614195565b92915050565b600060208284031215612f5557600080fd5b6000612f6384828501612eb0565b91505092915050565b60008060408385031215612f7f57600080fd5b6000612f8d85828601612eb0565b925050602083013567ffffffffffffffff811115612faa57600080fd5b612fb685828601612eda565b9150509250929050565b600060208284031215612fd257600080fd5b6000612fe084828501612ec5565b91505092915050565b600060208284031215612ffb57600080fd5b600082013567ffffffffffffffff81111561301557600080fd5b61302184828501612eda565b91505092915050565b60008060008060008060008060006101208a8c03121561304957600080fd5b60008a013567ffffffffffffffff81111561306357600080fd5b61306f8c828d01612f04565b99505060206130808c828d01612eb0565b98505060408a013567ffffffffffffffff81111561309d57600080fd5b6130a98c828d01612eda565b97505060608a013567ffffffffffffffff8111156130c657600080fd5b6130d28c828d01612f04565b96505060806130e38c828d01612eb0565b95505060a08a013567ffffffffffffffff81111561310057600080fd5b61310c8c828d01612eda565b94505060c08a013567ffffffffffffffff81111561312957600080fd5b6131358c828d01612f04565b93505060e06131468c828d01612f2e565b9250506101006131588c828d01612f2e565b9150509295985092959850929598565b60006020828403121561317a57600080fd5b600061318884828501612f2e565b91505092915050565b6000806000606084860312156131a657600080fd5b60006131b486828701612f2e565b93505060206131c586828701612f2e565b92505060406131d686828701612f2e565b9150509250925092565b6131e981613b55565b82525050565b6131f881613b67565b82525050565b600061320982613a88565b6132138185613a9e565b9350613223818560208601613be1565b61322c81613d33565b840191505092915050565b600061324282613a88565b61324c8185613aaf565b935061325c818560208601613be1565b80840191505092915050565b6000815461327581613c14565b61327f8186613a9e565b9450600182166000811461329a57600181146132ac576132df565b60ff19831686526020860193506132df565b6132b585613a73565b60005b838110156132d7578154818901526001820191506020810190506132b8565b808801955050505b50505092915050565b6132f181613bae565b82525050565b61330081613bc0565b82525050565b600061331182613a93565b61331b8185613aba565b935061332b818560208601613be1565b61333481613d33565b840191505092915050565b600061334c601783613aba565b915061335782613d44565b602082019050919050565b600061336f601683613aba565b915061337a82613d6d565b602082019050919050565b6000613392602683613aba565b915061339d82613d96565b604082019050919050565b60006133b5603583613aba565b91506133c082613de5565b604082019050919050565b60006133d8602583613aba565b91506133e382613e34565b604082019050919050565b60006133fb602c83613aba565b915061340682613e83565b604082019050919050565b600061341e603c83613aba565b915061342982613ed2565b604082019050919050565b6000613441603d83613aba565b915061344c82613f21565b604082019050919050565b6000613464602183613aba565b915061346f82613f70565b604082019050919050565b6000613487600083613aaf565b915061349282613fbf565b600082019050919050565b60006134aa601283613aba565b91506134b582613fc2565b602082019050919050565b60006134cd602583613aba565b91506134d882613feb565b604082019050919050565b60006134f0601c83613aba565b91506134fb8261403a565b602082019050919050565b6000613513602383613aba565b915061351e82614063565b604082019050919050565b6000613536602083613aba565b9150613541826140b2565b602082019050919050565b6000613559602583613aba565b9150613564826140db565b604082019050919050565b600061357c601783613aba565b91506135878261412a565b602082019050919050565b61359b81613ba4565b82525050565b60006135ad8284613237565b915081905092915050565b60006135c38261347a565b9150819050919050565b60006020820190506135e260008301846131e0565b92915050565b60006060820190506135fd60008301866131e0565b61360a60208301856131ef565b818103604083015261361c8184613268565b9050949350505050565b600060808201905061363b60008301876131e0565b61364860208301866131ef565b818103604083015261365a8185613268565b9050818103606083015261366e81846131fe565b905095945050505050565b600060608201905061368e60008301866131ef565b81810360208301526136a081856131fe565b905081810360408301526136b481846131fe565b9050949350505050565b600060208201905081810360008301526136d881846131fe565b905092915050565b60006020820190506136f560008301846132e8565b92915050565b600060408201905061371060008301856132e8565b61371d60208301846132f7565b9392505050565b600060408201905061373960008301856132e8565b6137466020830184613592565b9392505050565b600060e0820190508181036000830152613767818a613306565b905061377660208301896131e0565b81810360408301526137888188613306565b905061379760608301876131e0565b81810360808301526137a98186613306565b90506137b860a0830185613592565b6137c560c0830184613592565b98975050505050505050565b600060208201905081810360008301526137ea8161333f565b9050919050565b6000602082019050818103600083015261380a81613362565b9050919050565b6000602082019050818103600083015261382a81613385565b9050919050565b6000602082019050818103600083015261384a816133a8565b9050919050565b6000602082019050818103600083015261386a816133cb565b9050919050565b6000602082019050818103600083015261388a816133ee565b9050919050565b600060208201905081810360008301526138aa81613411565b9050919050565b600060208201905081810360008301526138ca81613434565b9050919050565b600060208201905081810360008301526138ea81613457565b9050919050565b6000602082019050818103600083015261390a8161349d565b9050919050565b6000602082019050818103600083015261392a816134c0565b9050919050565b6000602082019050818103600083015261394a816134e3565b9050919050565b6000602082019050818103600083015261396a81613506565b9050919050565b6000602082019050818103600083015261398a81613529565b9050919050565b600060208201905081810360008301526139aa8161354c565b9050919050565b600060208201905081810360008301526139ca8161356f565b9050919050565b60006020820190506139e66000830184613592565b92915050565b60006139f6613a07565b9050613a028282613c46565b919050565b6000604051905090565b600067ffffffffffffffff821115613a2c57613a2b613d04565b5b613a3582613d33565b9050602081019050919050565b600067ffffffffffffffff821115613a5d57613a5c613d04565b5b613a6682613d33565b9050602081019050919050565b60008190508160005260206000209050919050565b600081519050919050565b600081519050919050565b600082825260208201905092915050565b600081905092915050565b600082825260208201905092915050565b6000613ad682613ba4565b9150613ae183613ba4565b9250827fffffffffffffffffffffffffffffffffffffffffffffffffffffffffffffffff03821115613b1657613b15613c77565b5b828201905092915050565b6000613b2c82613ba4565b9150613b3783613ba4565b925082821015613b4a57613b49613c77565b5b828203905092915050565b6000613b6082613b84565b9050919050565b6000819050919050565b6000819050613b7f82614153565b919050565b600073ffffffffffffffffffffffffffffffffffffffff82169050919050565b6000819050919050565b6000613bb982613b71565b9050919050565b6000613bcb82613ba4565b9050919050565b82818337600083830152505050565b60005b83811015613bff578082015181840152602081019050613be4565b83811115613c0e576000848401525b50505050565b60006002820490506001821680613c2c57607f821691505b60208210811415613c4057613c3f613cd5565b5b50919050565b613c4f82613d33565b810181811067ffffffffffffffff82111715613c6e57613c6d613d04565b5b80604052505050565b7f4e487b7100000000000000000000000000000000000000000000000000000000600052601160045260246000fd5b7f4e487b7100000000000000000000000000000000000000000000000000000000600052602160045260246000fd5b7f4e487b7100000000000000000000000000000000000000000000000000000000600052602260045260246000fd5b7f4e487b7100000000000000000000000000000000000000000000000000000000600052604160045260246000fd5b6000601f19601f8301169050919050565b7f4f7264657220616c726561647920636f6d6d697465642e000000000000000000600082015250565b7f436c69656e74206e6f7420726567697374657265642e00000000000000000000600082015250565b7f427579657220616e642053656c6c6572206d757374206e6f742062652074686560008201527f2073616d652e0000000000000000000000000000000000000000000000000000602082015250565b7f506c65617365207761697420666f72207468652065787069726174696f6e206f60008201527f66207468652070726576696f75732070686173652e0000000000000000000000602082015250565b7f4e6f20636970686572746578742070726f76696465642062792074686973206260008201527f757965722e000000000000000000000000000000000000000000000000000000602082015250565b7f546869732066756e6374696f6e206973206e6f742063616c6c61626c6520617460008201527f20746869732070686173652e0000000000000000000000000000000000000000602082015250565b7f5472616e73616374696f6e206164647265737320646f65736e277420636f727260008201527f6573706f6e6420746f2061207265676973746572656420757365722e00000000602082015250565b7f5472616e73616374696f6e206164647265737320646f6573206e6f7420636f7260008201527f726573706f6e6420746f2061207265676973746572656420757365722e000000602082015250565b7f506c656173652070726f7669646520656e6f75676820636f6c6c61746572616c60008201527f2e00000000000000000000000000000000000000000000000000000000000000602082015250565b50565b7f44656c657465206f6c64206f72646572732e0000000000000000000000000000600082015250565b7f4e6f20636f6d6d69746d656e742070726f76696465642062792074686973206260008201527f757965722e000000000000000000000000000000000000000000000000000000602082015250565b7f4369706865727465787420616c72656164792072657665616c65642e00000000600082015250565b7f41756374696f6e206d6f64652073686f756c642062652030206f722031206f7260008201527f20322e0000000000000000000000000000000000000000000000000000000000602082015250565b7f4f6e6c7920746865206f70657261746f722063616e2063616c6c20746869732e600082015250565b7f4369706865727465787420646f6573206e6f74206d6174636820636f6d6d697460008201527f6d656e742e000000000000000000000000000000000000000000000000000000602082015250565b7f4e6f20636f6d6d69746d656e7420776173206d6164652e000000000000000000600082015250565b6005811061416457614163613ca6565b5b50565b61417081613b55565b811461417b57600080fd5b50565b61418781613b67565b811461419257600080fd5b50565b61419e81613ba4565b81146141a957600080fd5b5056fea2646970667358221220688545bc86906362d038c4a43b428ba3c82e11067bc7f2eca0d5f669bc1e60dc64736f6c63430008010033",
  "immutableReferences": {},
  "source": "// SPDX-License-Identifier: GPLv3\r\n\r\npragma solidity ^0.8.1;\r\npragma abicoder v2;\r\npragma experimental SMTChecker;\r\n\r\ncontract darkPool {\r\n    // State:\r\n    //      Registration (Reg): operator can add, delete and modify client data,\r\n    //      Trading (Tr): clients commit orders\r\n    //      Reveil (Rev): clients \"reveil\" orders\r\n    //      Calculation (Cal): operator performs the computation\r\n    //      Results (Res): operator publishes matched orders\r\n    // Then we move back to registration (next \"trading day\")\r\n    enum Phase { Reg, Trd, Rev, Cal, Res }\r\n    Phase public phase;\r\n    address public operator; // adress of the dark pool operator\r\n    uint public stake; // amount each client needs to stake\r\n    mapping(address => bytes) public us_pk; // user specific public key\r\n    // Stores details about each order\r\n    struct Order {\r\n        bytes32 _commitment;\r\n        bytes _ciphertext;\r\n        bytes _sk;\r\n    }\r\n    // Stores user orders\r\n    mapping(address => Order) public orders;\r\n    uint order_num;\r\n    // 0: Periodic, 1: Volume, 2: MV\r\n    uint public auctionMode;\r\n    uint public expiration;\r\n\r\n    // inform participants about current state\r\n    event startPhase(\r\n        Phase currentState,\r\n        uint expirationTime\r\n    );\r\n    // inform participants about \"revealed\" commitments only since\r\n    // the rest are automatically rejected (invalid)\r\n    event commitmentRevealed(\r\n        address sender,\r\n        bytes32 commitment,\r\n        bytes ciphertext\r\n    );\r\n    // reveal secret for a matched order\r\n    event secretRevealed(\r\n      address sender,\r\n      bytes32 commitment,\r\n      bytes ciphertext,\r\n      bytes secret\r\n    );\r\n    // log trades after they were matched\r\n    event logTrade(\r\n        string buyer,\r\n        address buyerAddr,\r\n        string seller,\r\n        address sellerAddr,\r\n        string asset,\r\n        uint amount,\r\n        uint price\r\n    );\r\n    // log when a registered client claims fraud\r\n    event fraudClaimed(\r\n        address claimer\r\n    );\r\n\r\n    constructor() {\r\n        // save address of dark pool operator\r\n        operator = msg.sender;\r\n        // start registration phase\r\n        phase = Phase.Reg;\r\n        // emit event\r\n        emit startPhase(Phase.Reg, 0);\r\n        // initialise variables - redundant but keep in here just in case\r\n        order_num = 0;\r\n        stake = 0;\r\n        auctionMode = 0;\r\n        expiration = 0;\r\n    }\r\n\r\n    // *** Operator functions ***\r\n\r\n    function register_client(address client_address, bytes memory pk) external {\r\n        // only the operator can add new clients\r\n        require(msg.sender == operator, \"Only the operator can call this.\");\r\n        // check if we are at the registration phase\r\n        require(phase == Phase.Reg, \"This function is not callable at this phase.\");\r\n        // add client\r\n        us_pk[client_address] = pk;\r\n    }\r\n\r\n    function trading_phase(uint time, uint mode, uint deposit) external {\r\n        // only the operator can initiate the trading phase\r\n        require(msg.sender == operator, \"Only the operator can call this.\");\r\n         // check if we are at the registration phase\r\n        require(phase == Phase.Reg, \"This function is not callable at this phase.\");\r\n        // make sure no orders are left from previous trading days\r\n        require(order_num == 0, \"Delete old orders.\");\r\n        // check if it's a valid auction mode\r\n        require(mode < 3, \"Auction mode should be 0 or 1 or 2.\");\r\n        // set auction mode\r\n        auctionMode = mode;\r\n        // set stake\r\n        stake = deposit;\r\n        // change to trading phase\r\n        phase = Phase.Trd;\r\n        // set expiration time for trading day\r\n        // trading time in blocks, 1 block is mined every ~12 seconds\r\n        expiration = block.number + time;\r\n        // emit event\r\n        emit startPhase(Phase.Trd, expiration);\r\n    }\r\n\r\n    function reveal_phase(uint time) external {\r\n        // only the operator can initiate the reveal phase\r\n        require(msg.sender == operator, \"Only the operator can call this.\");\r\n         // check if we are at the trading phase\r\n        require(phase == Phase.Trd, \"This function is not callable at this phase.\");\r\n        // check if we are at or past expiration\r\n        require(block.number >= expiration, \"Please wait for the expiration of the previous phase.\");\r\n        // change to reveal phase\r\n        phase = Phase.Rev;\r\n        // set expiration time\r\n        expiration = block.number + time;\r\n        // emit event\r\n        emit startPhase(Phase.Rev, expiration);\r\n    }\r\n\r\n    function calc_phase() external {\r\n        // only the operator can initiate the calculation phase\r\n        require(msg.sender == operator, \"Only the operator can call this.\");\r\n         // check if we are at the reveal phase\r\n        require(phase == Phase.Rev, \"This function is not callable at this phase.\");\r\n        // check if we are at or past expiration\r\n        require(block.number >= expiration, \"Please wait for the expiration of the previous phase.\");\r\n        // change to calculation phase\r\n        phase = Phase.Cal;\r\n        // emit event\r\n        emit startPhase(Phase.Cal, 0);\r\n    }\r\n\r\n    function reveal_match(string memory asset, address buyer, bytes memory skB, string memory nameB, address seller,\r\n                          bytes memory skS, string memory nameS, uint amount, uint price) external {\r\n        // only the operator can reveal a match\r\n        require(msg.sender == operator, \"Only the operator can call this.\");\r\n         // check if we are at the calculation phase\r\n        require(phase == Phase.Cal, \"This function is not callable at this phase.\");\r\n        // check that two different clients were provided\r\n        require(buyer != seller, \"Buyer and Seller must not be the same.\");\r\n        // check if buyer has provided all details\r\n        // check if commitment exists\r\n        require(orders[buyer]._commitment != 0, \"No commitment provided by this buyer.\");\r\n        // check if ciphertext exists\r\n        require(orders[buyer]._ciphertext.length > 0, \"No ciphertext provided by this buyer.\");\r\n        // check if seller has provided all details\r\n        // check if commitment exists\r\n        require(orders[seller]._commitment != 0, \"No commitment provided by this buyer.\");\r\n        // check if ciphertext exists\r\n        require(orders[seller]._ciphertext.length > 0, \"No ciphertext provided by this buyer.\");\r\n        // publish secret keys, allowing verification\r\n        // check if seller key was already published\r\n        if(orders[seller]._sk.length == 0) {\r\n            orders[seller]._sk = skS;\r\n            emit secretRevealed(seller, orders[seller]._commitment, orders[seller]._ciphertext, skS);\r\n        }\r\n        // check if buyer key was already published\r\n        if(orders[buyer]._sk.length == 0) {\r\n            orders[buyer]._sk = skB;\r\n            emit secretRevealed(buyer, orders[buyer]._commitment, orders[buyer]._ciphertext, skB);\r\n        }\r\n        // emit trade event\r\n        emit logTrade(nameB, buyer, nameS, seller, asset, amount, price);\r\n    }\r\n\r\n    function res_phase(uint time) external {\r\n        // only the operator can initiate the results phase\r\n        require(msg.sender == operator, \"Only the operator can call this.\");\r\n         // check if we are at the calculation phase\r\n        require(phase == Phase.Cal, \"This function is not callable at this phase.\");\r\n        // change to results phase\r\n        phase = Phase.Res;\r\n        // set expiration time\r\n        expiration = block.number + time;\r\n        // emit event\r\n        emit startPhase(Phase.Res, expiration);\r\n    }\r\n\r\n    function reg_phase() external {\r\n        // only the operator can initiate the registration phase\r\n        require(msg.sender == operator, \"Only the operator can call this.\");\r\n         // check if we are at the results phase\r\n        require(phase == Phase.Res, \"This function is not callable at this phase.\");\r\n        // check if we are at or past expiration\r\n        require(block.number >= expiration, \"Please wait for the expiration of the previous phase.\");\r\n        // change to the registration phase\r\n        phase = Phase.Reg;\r\n        // emit event\r\n        emit startPhase(Phase.Reg, 0);\r\n    }\r\n\r\n    // *** IMPORTANT NOTE: ***\r\n    // At the end of a trading day, the operator MUST delete all orders or delete\r\n    // and reregister(in random order) every client that took part in the previous\r\n    // trading day, otherwise their previous order won't be deleted from the smart\r\n    // contract (this could lead to previous orders re-executing)\r\n\r\n    function remove_order(address client_address) external {\r\n        // only the operator can delete orders\r\n        require(msg.sender == operator, \"Only the operator can call this.\");\r\n        // check if we are at the registration phase\r\n        require(phase == Phase.Reg, \"This function is not callable at this phase.\");\r\n        // check if client already assigned a public key\r\n        require(us_pk[client_address].length != 0, \"Client not registered.\");\r\n        // remove order if any\r\n        if (orders[client_address]._commitment != 0) {\r\n          delete orders[client_address];\r\n          // decrement order number\r\n          order_num -= 1;\r\n        }\r\n    }\r\n\r\n    function remove_client(address client_address) external {\r\n        // only the operator can delete clients\r\n        require(msg.sender == operator, \"Only the operator can call this.\");\r\n        // check if we are at the registration phase\r\n        require(phase == Phase.Reg, \"This function is not callable at this phase.\");\r\n        // check if client already assigned a public key\r\n        require(us_pk[client_address].length != 0, \"Client not registered.\");\r\n        // remove order if any\r\n        if (orders[client_address]._commitment != 0) {\r\n          delete orders[client_address];\r\n          // decrement order number\r\n          order_num -= 1;\r\n        }\r\n        // delete clients public key\r\n        delete us_pk[client_address];\r\n    }\r\n\r\n    // *** Client functions ***\r\n\r\n    function commit_order(bytes32 hashed_order) payable external {\r\n        // check if enough collateral is provided\r\n        require(msg.value >= stake, \"Please provide enough collateral.\");\r\n         // check if we are at the trading phase\r\n        require(phase == Phase.Trd, \"This function is not callable at this phase.\");\r\n        // only a registered user can commit an order\r\n        require(us_pk[msg.sender].length > 0, \"Transaction address does not correspond to a registered user.\");\r\n        // check if commitment exists\r\n        require(orders[msg.sender]._commitment == 0, \"Order already commited.\");\r\n        // add commitment only (nonce and ciphertext set to default values)\r\n        orders[msg.sender]._commitment = hashed_order;\r\n        // increment order number\r\n        order_num += 1;\r\n    }\r\n\r\n    function cancel_order() external {\r\n         // check if we are at the trading phase\r\n        require(phase == Phase.Trd, \"This function is not callable at this phase.\");\r\n        // only a registered user can cancel an order\r\n        require(us_pk[msg.sender].length > 0, \"Transaction address does not correspond to a registered user.\");\r\n        // check if client has commited to an order\r\n        require(orders[msg.sender]._commitment != 0, \"No commitment was made.\");\r\n        // decrement order number\r\n        order_num -= 1;\r\n        // delete commitment\r\n        delete orders[msg.sender]._commitment;\r\n        // first delete then return collateral to avoid re-entrancy\r\n        // return collateral\r\n        msg.sender.call{value: stake}(\"\"); // use this instead of send/transfer due to EIP 1884\r\n    }\r\n\r\n    function change_order(bytes32 hashed_order) external {\r\n         // check if we are at the trading phase\r\n        require(phase == Phase.Trd, \"This function is not callable at this phase.\");\r\n        // only a registered user can change an order\r\n        require(us_pk[msg.sender].length > 0, \"Transaction address does not correspond to a registered user.\");\r\n        // check if client has commited to an order\r\n        require(orders[msg.sender]._commitment != 0, \"No commitment was made.\");\r\n        // change the commitment\r\n        orders[msg.sender]._commitment = hashed_order;\r\n    }\r\n\r\n    function reveal_order(bytes memory ciphertext) external {\r\n        // check if we are at the reveal phase\r\n        require(phase == Phase.Rev, \"This function is not callable at this phase.\");\r\n        // only a registered user can commit an order\r\n        require(us_pk[msg.sender].length > 0, \"Transaction address doesn't correspond to a registered user.\");\r\n        // check if commitment exists\r\n        require(orders[msg.sender]._commitment != 0, \"No commitment was made.\");\r\n        // check if ciphertext exists\r\n        require(orders[msg.sender]._ciphertext.length == 0, \"Ciphertext already revealed.\");\r\n        // check that the ciphertext matches the commitment\r\n        require(keccak256(abi.encodePacked(ciphertext)) == orders[msg.sender]._commitment, \"Ciphertext does not match commitment.\");\r\n        // add ciphertext\r\n        orders[msg.sender]._ciphertext = ciphertext;\r\n        // first add then return collateral to avoid re-entrancy\r\n        // return collateral\r\n        msg.sender.call{value: stake}(\"\"); // use this instead of send/transfer due to EIP 1884\r\n        // emit event\r\n        emit commitmentRevealed(msg.sender, orders[msg.sender]._commitment, orders[msg.sender]._ciphertext);\r\n    }\r\n\r\n    function claim_fraud() external {\r\n        // check if we are at the reveal phase\r\n        require(phase == Phase.Res, \"This function is not callable at this phase.\");\r\n        // only a registered user can claim fraud\r\n        require(us_pk[msg.sender].length > 0, \"Transaction address doesn't correspond to a registered user.\");\r\n        // emit event\r\n        emit fraudClaimed(msg.sender);\r\n    }\r\n}\r\n",
  "sourcePath": "C:/Users/theod/OneDrive - University of Bristol/Uni/4 Forth Year/Project/DarkPool Workings Conference/truffle/contracts/darkPool.sol",
  "compiler": {
    "name": "solc",
    "version": "0.8.1+commit.df193b15.Emscripten.clang"
  },
  "schemaVersion": "3.4.1",
  "updatedAt": "2021-06-30T23:03:26.437Z",
  "devdoc": {
    "kind": "dev",
    "methods": {},
    "version": 1
  },
  "userdoc": {
    "kind": "user",
    "methods": {},
    "version": 1
  }
}